{
  "contractName": "NFT",
  "abi": [
    {
      "inputs": [
        {
          "internalType": "string",
          "name": "_name",
          "type": "string"
        },
        {
          "internalType": "string",
          "name": "_symbol",
          "type": "string"
        },
        {
          "internalType": "string",
          "name": "_initBaseURI",
          "type": "string"
        }
      ],
      "stateMutability": "nonpayable",
      "type": "constructor"
    },
    {
      "anonymous": false,
      "inputs": [
        {
          "indexed": true,
          "internalType": "address",
          "name": "owner",
          "type": "address"
        },
        {
          "indexed": true,
          "internalType": "address",
          "name": "approved",
          "type": "address"
        },
        {
          "indexed": true,
          "internalType": "uint256",
          "name": "tokenId",
          "type": "uint256"
        }
      ],
      "name": "Approval",
      "type": "event"
    },
    {
      "anonymous": false,
      "inputs": [
        {
          "indexed": true,
          "internalType": "address",
          "name": "owner",
          "type": "address"
        },
        {
          "indexed": true,
          "internalType": "address",
          "name": "operator",
          "type": "address"
        },
        {
          "indexed": false,
          "internalType": "bool",
          "name": "approved",
          "type": "bool"
        }
      ],
      "name": "ApprovalForAll",
      "type": "event"
    },
    {
      "anonymous": false,
      "inputs": [
        {
          "indexed": true,
          "internalType": "address",
          "name": "previousOwner",
          "type": "address"
        },
        {
          "indexed": true,
          "internalType": "address",
          "name": "newOwner",
          "type": "address"
        }
      ],
      "name": "OwnershipTransferred",
      "type": "event"
    },
    {
      "anonymous": false,
      "inputs": [
        {
          "indexed": true,
          "internalType": "address",
          "name": "from",
          "type": "address"
        },
        {
          "indexed": true,
          "internalType": "address",
          "name": "to",
          "type": "address"
        },
        {
          "indexed": true,
          "internalType": "uint256",
          "name": "tokenId",
          "type": "uint256"
        }
      ],
      "name": "Transfer",
      "type": "event"
    },
    {
      "inputs": [
        {
          "internalType": "address",
          "name": "to",
          "type": "address"
        },
        {
          "internalType": "uint256",
          "name": "tokenId",
          "type": "uint256"
        }
      ],
      "name": "approve",
      "outputs": [],
      "stateMutability": "nonpayable",
      "type": "function"
    },
    {
      "inputs": [
        {
          "internalType": "address",
          "name": "owner",
          "type": "address"
        }
      ],
      "name": "balanceOf",
      "outputs": [
        {
          "internalType": "uint256",
          "name": "",
          "type": "uint256"
        }
      ],
      "stateMutability": "view",
      "type": "function",
      "constant": true
    },
    {
      "inputs": [],
      "name": "baseExtension",
      "outputs": [
        {
          "internalType": "string",
          "name": "",
          "type": "string"
        }
      ],
      "stateMutability": "view",
      "type": "function",
      "constant": true
    },
    {
      "inputs": [],
      "name": "baseURI",
      "outputs": [
        {
          "internalType": "string",
          "name": "",
          "type": "string"
        }
      ],
      "stateMutability": "view",
      "type": "function",
      "constant": true
    },
    {
      "inputs": [],
      "name": "cost",
      "outputs": [
        {
          "internalType": "uint256",
          "name": "",
          "type": "uint256"
        }
      ],
      "stateMutability": "view",
      "type": "function",
      "constant": true
    },
    {
      "inputs": [
        {
          "internalType": "uint256",
          "name": "tokenId",
          "type": "uint256"
        }
      ],
      "name": "getApproved",
      "outputs": [
        {
          "internalType": "address",
          "name": "",
          "type": "address"
        }
      ],
      "stateMutability": "view",
      "type": "function",
      "constant": true
    },
    {
      "inputs": [
        {
          "internalType": "address",
          "name": "owner",
          "type": "address"
        },
        {
          "internalType": "address",
          "name": "operator",
          "type": "address"
        }
      ],
      "name": "isApprovedForAll",
      "outputs": [
        {
          "internalType": "bool",
          "name": "",
          "type": "bool"
        }
      ],
      "stateMutability": "view",
      "type": "function",
      "constant": true
    },
    {
      "inputs": [],
      "name": "maxMintAmount",
      "outputs": [
        {
          "internalType": "uint256",
          "name": "",
          "type": "uint256"
        }
      ],
      "stateMutability": "view",
      "type": "function",
      "constant": true
    },
    {
      "inputs": [],
      "name": "maxSupply",
      "outputs": [
        {
          "internalType": "uint256",
          "name": "",
          "type": "uint256"
        }
      ],
      "stateMutability": "view",
      "type": "function",
      "constant": true
    },
    {
      "inputs": [],
      "name": "name",
      "outputs": [
        {
          "internalType": "string",
          "name": "",
          "type": "string"
        }
      ],
      "stateMutability": "view",
      "type": "function",
      "constant": true
    },
    {
      "inputs": [],
      "name": "owner",
      "outputs": [
        {
          "internalType": "address",
          "name": "",
          "type": "address"
        }
      ],
      "stateMutability": "view",
      "type": "function",
      "constant": true
    },
    {
      "inputs": [
        {
          "internalType": "uint256",
          "name": "tokenId",
          "type": "uint256"
        }
      ],
      "name": "ownerOf",
      "outputs": [
        {
          "internalType": "address",
          "name": "",
          "type": "address"
        }
      ],
      "stateMutability": "view",
      "type": "function",
      "constant": true
    },
    {
      "inputs": [],
      "name": "paused",
      "outputs": [
        {
          "internalType": "bool",
          "name": "",
          "type": "bool"
        }
      ],
      "stateMutability": "view",
      "type": "function",
      "constant": true
    },
    {
      "inputs": [],
      "name": "renounceOwnership",
      "outputs": [],
      "stateMutability": "nonpayable",
      "type": "function"
    },
    {
      "inputs": [
        {
          "internalType": "address",
          "name": "from",
          "type": "address"
        },
        {
          "internalType": "address",
          "name": "to",
          "type": "address"
        },
        {
          "internalType": "uint256",
          "name": "tokenId",
          "type": "uint256"
        }
      ],
      "name": "safeTransferFrom",
      "outputs": [],
      "stateMutability": "nonpayable",
      "type": "function"
    },
    {
      "inputs": [
        {
          "internalType": "address",
          "name": "from",
          "type": "address"
        },
        {
          "internalType": "address",
          "name": "to",
          "type": "address"
        },
        {
          "internalType": "uint256",
          "name": "tokenId",
          "type": "uint256"
        },
        {
          "internalType": "bytes",
          "name": "_data",
          "type": "bytes"
        }
      ],
      "name": "safeTransferFrom",
      "outputs": [],
      "stateMutability": "nonpayable",
      "type": "function"
    },
    {
      "inputs": [
        {
          "internalType": "address",
          "name": "operator",
          "type": "address"
        },
        {
          "internalType": "bool",
          "name": "approved",
          "type": "bool"
        }
      ],
      "name": "setApprovalForAll",
      "outputs": [],
      "stateMutability": "nonpayable",
      "type": "function"
    },
    {
      "inputs": [
        {
          "internalType": "bytes4",
          "name": "interfaceId",
          "type": "bytes4"
        }
      ],
      "name": "supportsInterface",
      "outputs": [
        {
          "internalType": "bool",
          "name": "",
          "type": "bool"
        }
      ],
      "stateMutability": "view",
      "type": "function",
      "constant": true
    },
    {
      "inputs": [],
      "name": "symbol",
      "outputs": [
        {
          "internalType": "string",
          "name": "",
          "type": "string"
        }
      ],
      "stateMutability": "view",
      "type": "function",
      "constant": true
    },
    {
      "inputs": [
        {
          "internalType": "uint256",
          "name": "index",
          "type": "uint256"
        }
      ],
      "name": "tokenByIndex",
      "outputs": [
        {
          "internalType": "uint256",
          "name": "",
          "type": "uint256"
        }
      ],
      "stateMutability": "view",
      "type": "function",
      "constant": true
    },
    {
      "inputs": [
        {
          "internalType": "address",
          "name": "owner",
          "type": "address"
        },
        {
          "internalType": "uint256",
          "name": "index",
          "type": "uint256"
        }
      ],
      "name": "tokenOfOwnerByIndex",
      "outputs": [
        {
          "internalType": "uint256",
          "name": "",
          "type": "uint256"
        }
      ],
      "stateMutability": "view",
      "type": "function",
      "constant": true
    },
    {
      "inputs": [],
      "name": "totalSupply",
      "outputs": [
        {
          "internalType": "uint256",
          "name": "",
          "type": "uint256"
        }
      ],
      "stateMutability": "view",
      "type": "function",
      "constant": true
    },
    {
      "inputs": [
        {
          "internalType": "address",
          "name": "from",
          "type": "address"
        },
        {
          "internalType": "address",
          "name": "to",
          "type": "address"
        },
        {
          "internalType": "uint256",
          "name": "tokenId",
          "type": "uint256"
        }
      ],
      "name": "transferFrom",
      "outputs": [],
      "stateMutability": "nonpayable",
      "type": "function"
    },
    {
      "inputs": [
        {
          "internalType": "address",
          "name": "newOwner",
          "type": "address"
        }
      ],
      "name": "transferOwnership",
      "outputs": [],
      "stateMutability": "nonpayable",
      "type": "function"
    },
    {
      "inputs": [
        {
          "internalType": "address",
          "name": "",
          "type": "address"
        }
      ],
      "name": "whitelisted",
      "outputs": [
        {
          "internalType": "bool",
          "name": "",
          "type": "bool"
        }
      ],
      "stateMutability": "view",
      "type": "function",
      "constant": true
    },
    {
      "inputs": [
        {
          "internalType": "address",
          "name": "_to",
          "type": "address"
        },
        {
          "internalType": "uint256",
          "name": "_mintAmount",
          "type": "uint256"
        }
      ],
      "name": "mint",
      "outputs": [],
      "stateMutability": "payable",
      "type": "function",
      "payable": true
    },
    {
      "inputs": [
        {
          "internalType": "address",
          "name": "_owner",
          "type": "address"
        }
      ],
      "name": "walletOfOwner",
      "outputs": [
        {
          "internalType": "uint256[]",
          "name": "",
          "type": "uint256[]"
        }
      ],
      "stateMutability": "view",
      "type": "function",
      "constant": true
    },
    {
      "inputs": [
        {
          "internalType": "uint256",
          "name": "tokenId",
          "type": "uint256"
        }
      ],
      "name": "tokenURI",
      "outputs": [
        {
          "internalType": "string",
          "name": "",
          "type": "string"
        }
      ],
      "stateMutability": "view",
      "type": "function",
      "constant": true
    },
    {
      "inputs": [
        {
          "internalType": "uint256",
          "name": "_newCost",
          "type": "uint256"
        }
      ],
      "name": "setCost",
      "outputs": [],
      "stateMutability": "nonpayable",
      "type": "function"
    },
    {
      "inputs": [
        {
          "internalType": "uint256",
          "name": "_newmaxMintAmount",
          "type": "uint256"
        }
      ],
      "name": "setmaxMintAmount",
      "outputs": [],
      "stateMutability": "nonpayable",
      "type": "function"
    },
    {
      "inputs": [
        {
          "internalType": "string",
          "name": "_newBaseURI",
          "type": "string"
        }
      ],
      "name": "setBaseURI",
      "outputs": [],
      "stateMutability": "nonpayable",
      "type": "function"
    },
    {
      "inputs": [
        {
          "internalType": "string",
          "name": "_newBaseExtension",
          "type": "string"
        }
      ],
      "name": "setBaseExtension",
      "outputs": [],
      "stateMutability": "nonpayable",
      "type": "function"
    },
    {
      "inputs": [
        {
          "internalType": "bool",
          "name": "_state",
          "type": "bool"
        }
      ],
      "name": "pause",
      "outputs": [],
      "stateMutability": "nonpayable",
      "type": "function"
    },
    {
      "inputs": [
        {
          "internalType": "address",
          "name": "_user",
          "type": "address"
        }
      ],
      "name": "whitelistUser",
      "outputs": [],
      "stateMutability": "nonpayable",
      "type": "function"
    },
    {
      "inputs": [
        {
          "internalType": "address",
          "name": "_user",
          "type": "address"
        }
      ],
      "name": "removeWhitelistUser",
      "outputs": [],
      "stateMutability": "nonpayable",
      "type": "function"
    },
    {
      "inputs": [],
      "name": "withdraw",
      "outputs": [],
      "stateMutability": "payable",
      "type": "function",
      "payable": true
    }
  ],
  "bytecode": "0x60806040526040518060400160405280600581526020017f2e6a736f6e000000000000000000000000000000000000000000000000000000815250600c90805190602001906200005192919062000e3f565b5066b1a2bc2ec50000600d55600a600e556014600f556000601060006101000a81548160ff0219169083151502179055503480156200008f57600080fd5b5060405162005c0438038062005c048339818101604052810190620000b5919062000fb6565b82828160009080519060200190620000cf92919062000e3f565b508060019080519060200190620000e892919062000e3f565b5050506200010b620000ff6200013860201b60201c565b6200014060201b60201c565b6200011c816200020660201b60201c565b6200012f33600a620002b160201b60201c565b505050620017b5565b600033905090565b6000600a60009054906101000a900473ffffffffffffffffffffffffffffffffffffffff16905081600a60006101000a81548173ffffffffffffffffffffffffffffffffffffffff021916908373ffffffffffffffffffffffffffffffffffffffff1602179055508173ffffffffffffffffffffffffffffffffffffffff168173ffffffffffffffffffffffffffffffffffffffff167f8be0079c531659141344cd1fd0a4f28419497f9722a3daafe3b4186f6b6457e060405160405180910390a35050565b620002166200013860201b60201c565b73ffffffffffffffffffffffffffffffffffffffff166200023c6200042060201b60201c565b73ffffffffffffffffffffffffffffffffffffffff161462000295576040517f08c379a00000000000000000000000000000000000000000000000000000000081526004016200028c9062001271565b60405180910390fd5b80600b9080519060200190620002ad92919062000e3f565b5050565b6000620002c36200044a60201b60201c565b9050601060009054906101000a900460ff1615620002e057600080fd5b60008211620002ee57600080fd5b600f54821115620002fe57600080fd5b600e5482826200030f91906200131f565b11156200031b57600080fd5b6200032b6200042060201b60201c565b73ffffffffffffffffffffffffffffffffffffffff163373ffffffffffffffffffffffffffffffffffffffff1614620003d65760011515601160003373ffffffffffffffffffffffffffffffffffffffff1673ffffffffffffffffffffffffffffffffffffffff16815260200190815260200160002060009054906101000a900460ff16151514620003d55781600d54620003c791906200137c565b341015620003d457600080fd5b5b5b6000600190505b8281116200041a5762000404848284620003f891906200131f565b6200045760201b60201c565b8080620004119062001524565b915050620003dd565b50505050565b6000600a60009054906101000a900473ffffffffffffffffffffffffffffffffffffffff16905090565b6000600880549050905090565b620004798282604051806020016040528060008152506200047d60201b60201c565b5050565b6200048f8383620004eb60201b60201c565b620004a46000848484620006d160201b60201c565b620004e6576040517f08c379a0000000000000000000000000000000000000000000000000000000008152600401620004dd90620011e9565b60405180910390fd5b505050565b600073ffffffffffffffffffffffffffffffffffffffff168273ffffffffffffffffffffffffffffffffffffffff1614156200055e576040517f08c379a000000000000000000000000000000000000000000000000000000000815260040162000555906200124f565b60405180910390fd5b6200056f816200088b60201b60201c565b15620005b2576040517f08c379a0000000000000000000000000000000000000000000000000000000008152600401620005a9906200120b565b60405180910390fd5b620005c660008383620008f760201b60201c565b6001600360008473ffffffffffffffffffffffffffffffffffffffff1673ffffffffffffffffffffffffffffffffffffffff16815260200190815260200160002060008282546200061891906200131f565b92505081905550816002600083815260200190815260200160002060006101000a81548173ffffffffffffffffffffffffffffffffffffffff021916908373ffffffffffffffffffffffffffffffffffffffff160217905550808273ffffffffffffffffffffffffffffffffffffffff16600073ffffffffffffffffffffffffffffffffffffffff167fddf252ad1be2c89b69c2b068fc378daa952ba7f163c4a11628f55a4df523b3ef60405160405180910390a45050565b6000620006ff8473ffffffffffffffffffffffffffffffffffffffff1662000a3e60201b62001c521760201c565b156200087e578373ffffffffffffffffffffffffffffffffffffffff1663150b7a02620007316200013860201b60201c565b8786866040518563ffffffff1660e01b815260040162000755949392919062001195565b602060405180830381600087803b1580156200077057600080fd5b505af1925050508015620007a457506040513d601f19601f82011682018060405250810190620007a1919062000f84565b60015b6200082d573d8060008114620007d7576040519150601f19603f3d011682016040523d82523d6000602084013e620007dc565b606091505b5060008151141562000825576040517f08c379a00000000000000000000000000000000000000000000000000000000081526004016200081c90620011e9565b60405180910390fd5b805181602001fd5b63150b7a0260e01b7bffffffffffffffffffffffffffffffffffffffffffffffffffffffff1916817bffffffffffffffffffffffffffffffffffffffffffffffffffffffff19161491505062000883565b600190505b949350505050565b60008073ffffffffffffffffffffffffffffffffffffffff166002600084815260200190815260200160002060009054906101000a900473ffffffffffffffffffffffffffffffffffffffff1673ffffffffffffffffffffffffffffffffffffffff1614159050919050565b6200090f83838362000a5160201b62001c651760201c565b600073ffffffffffffffffffffffffffffffffffffffff168373ffffffffffffffffffffffffffffffffffffffff1614156200095c57620009568162000a5660201b60201c565b620009a4565b8173ffffffffffffffffffffffffffffffffffffffff168373ffffffffffffffffffffffffffffffffffffffff1614620009a357620009a2838262000a9f60201b60201c565b5b5b600073ffffffffffffffffffffffffffffffffffffffff168273ffffffffffffffffffffffffffffffffffffffff161415620009f157620009eb8162000c1c60201b60201c565b62000a39565b8273ffffffffffffffffffffffffffffffffffffffff168273ffffffffffffffffffffffffffffffffffffffff161462000a385762000a37828262000cf860201b60201c565b5b5b505050565b600080823b905060008111915050919050565b505050565b6008805490506009600083815260200190815260200160002081905550600881908060018154018082558091505060019003906000526020600020016000909190919091505550565b6000600162000ab98462000d8460201b6200146d1760201c565b62000ac59190620013dd565b905060006007600084815260200190815260200160002054905081811462000bab576000600660008673ffffffffffffffffffffffffffffffffffffffff1673ffffffffffffffffffffffffffffffffffffffff168152602001908152602001600020600084815260200190815260200160002054905080600660008773ffffffffffffffffffffffffffffffffffffffff1673ffffffffffffffffffffffffffffffffffffffff168152602001908152602001600020600084815260200190815260200160002081905550816007600083815260200190815260200160002081905550505b6007600084815260200190815260200160002060009055600660008573ffffffffffffffffffffffffffffffffffffffff1673ffffffffffffffffffffffffffffffffffffffff16815260200190815260200160002060008381526020019081526020016000206000905550505050565b6000600160088054905062000c329190620013dd565b905060006009600084815260200190815260200160002054905060006008838154811062000c655762000c64620015ff565b5b90600052602060002001549050806008838154811062000c8a5762000c89620015ff565b5b90600052602060002001819055508160096000838152602001908152602001600020819055506009600085815260200190815260200160002060009055600880548062000cdc5762000cdb620015d0565b5b6001900381819060005260206000200160009055905550505050565b600062000d108362000d8460201b6200146d1760201c565b905081600660008573ffffffffffffffffffffffffffffffffffffffff1673ffffffffffffffffffffffffffffffffffffffff168152602001908152602001600020600083815260200190815260200160002081905550806007600084815260200190815260200160002081905550505050565b60008073ffffffffffffffffffffffffffffffffffffffff168273ffffffffffffffffffffffffffffffffffffffff16141562000df8576040517f08c379a000000000000000000000000000000000000000000000000000000000815260040162000def906200122d565b60405180910390fd5b600360008373ffffffffffffffffffffffffffffffffffffffff1673ffffffffffffffffffffffffffffffffffffffff168152602001908152602001600020549050919050565b82805462000e4d90620014b8565b90600052602060002090601f01602090048101928262000e71576000855562000ebd565b82601f1062000e8c57805160ff191683800117855562000ebd565b8280016001018555821562000ebd579182015b8281111562000ebc57825182559160200191906001019062000e9f565b5b50905062000ecc919062000ed0565b5090565b5b8082111562000eeb57600081600090555060010162000ed1565b5090565b600062000f0662000f0084620012bc565b62001293565b90508281526020810184848401111562000f255762000f2462001662565b5b62000f3284828562001482565b509392505050565b60008151905062000f4b816200179b565b92915050565b600082601f83011262000f695762000f686200165d565b5b815162000f7b84826020860162000eef565b91505092915050565b60006020828403121562000f9d5762000f9c6200166c565b5b600062000fad8482850162000f3a565b91505092915050565b60008060006060848603121562000fd25762000fd16200166c565b5b600084015167ffffffffffffffff81111562000ff35762000ff262001667565b5b620010018682870162000f51565b935050602084015167ffffffffffffffff81111562001025576200102462001667565b5b620010338682870162000f51565b925050604084015167ffffffffffffffff81111562001057576200105662001667565b5b620010658682870162000f51565b9150509250925092565b6200107a8162001418565b82525050565b60006200108d82620012f2565b620010998185620012fd565b9350620010ab81856020860162001482565b620010b68162001671565b840191505092915050565b6000620010d06032836200130e565b9150620010dd8262001682565b604082019050919050565b6000620010f7601c836200130e565b91506200110482620016d1565b602082019050919050565b60006200111e602a836200130e565b91506200112b82620016fa565b604082019050919050565b6000620011456020836200130e565b9150620011528262001749565b602082019050919050565b60006200116c6020836200130e565b9150620011798262001772565b602082019050919050565b6200118f8162001478565b82525050565b6000608082019050620011ac60008301876200106f565b620011bb60208301866200106f565b620011ca604083018562001184565b8181036060830152620011de818462001080565b905095945050505050565b600060208201905081810360008301526200120481620010c1565b9050919050565b600060208201905081810360008301526200122681620010e8565b9050919050565b6000602082019050818103600083015262001248816200110f565b9050919050565b600060208201905081810360008301526200126a8162001136565b9050919050565b600060208201905081810360008301526200128c816200115d565b9050919050565b60006200129f620012b2565b9050620012ad8282620014ee565b919050565b6000604051905090565b600067ffffffffffffffff821115620012da57620012d96200162e565b5b620012e58262001671565b9050602081019050919050565b600081519050919050565b600082825260208201905092915050565b600082825260208201905092915050565b60006200132c8262001478565b9150620013398362001478565b9250827fffffffffffffffffffffffffffffffffffffffffffffffffffffffffffffffff0382111562001371576200137062001572565b5b828201905092915050565b6000620013898262001478565b9150620013968362001478565b9250817fffffffffffffffffffffffffffffffffffffffffffffffffffffffffffffffff0483118215151615620013d257620013d162001572565b5b828202905092915050565b6000620013ea8262001478565b9150620013f78362001478565b9250828210156200140d576200140c62001572565b5b828203905092915050565b6000620014258262001458565b9050919050565b60007fffffffff0000000000000000000000000000000000000000000000000000000082169050919050565b600073ffffffffffffffffffffffffffffffffffffffff82169050919050565b6000819050919050565b60005b83811015620014a257808201518184015260208101905062001485565b83811115620014b2576000848401525b50505050565b60006002820490506001821680620014d157607f821691505b60208210811415620014e857620014e7620015a1565b5b50919050565b620014f98262001671565b810181811067ffffffffffffffff821117156200151b576200151a6200162e565b5b80604052505050565b6000620015318262001478565b91507fffffffffffffffffffffffffffffffffffffffffffffffffffffffffffffffff82141562001567576200156662001572565b5b600182019050919050565b7f4e487b7100000000000000000000000000000000000000000000000000000000600052601160045260246000fd5b7f4e487b7100000000000000000000000000000000000000000000000000000000600052602260045260246000fd5b7f4e487b7100000000000000000000000000000000000000000000000000000000600052603160045260246000fd5b7f4e487b7100000000000000000000000000000000000000000000000000000000600052603260045260246000fd5b7f4e487b7100000000000000000000000000000000000000000000000000000000600052604160045260246000fd5b600080fd5b600080fd5b600080fd5b600080fd5b6000601f19601f8301169050919050565b7f4552433732313a207472616e7366657220746f206e6f6e20455243373231526560008201527f63656976657220696d706c656d656e7465720000000000000000000000000000602082015250565b7f4552433732313a20746f6b656e20616c7265616479206d696e74656400000000600082015250565b7f4552433732313a2062616c616e636520717565727920666f7220746865207a6560008201527f726f206164647265737300000000000000000000000000000000000000000000602082015250565b7f4552433732313a206d696e7420746f20746865207a65726f2061646472657373600082015250565b7f4f776e61626c653a2063616c6c6572206973206e6f7420746865206f776e6572600082015250565b620017a6816200142c565b8114620017b257600080fd5b50565b61443f80620017c56000396000f3fe60806040526004361061020f5760003560e01c806355f804b311610118578063a22cb465116100a0578063d5abeb011161006f578063d5abeb011461077f578063d936547e146107aa578063da3ef23f146107e7578063e985e9c514610810578063f2fde38b1461084d5761020f565b8063a22cb465146106c5578063b88d4fde146106ee578063c668286214610717578063c87b56dd146107425761020f565b806370a08231116100e757806370a08231146105f2578063715018a61461062f5780637f00c7a6146106465780638da5cb5b1461066f57806395d89b411461069a5761020f565b806355f804b3146105365780635c975abb1461055f5780636352211e1461058a5780636c0360eb146105c75761020f565b80632f745c591161019b57806342842e0e1161016a57806342842e0e14610441578063438b63001461046a57806344a0d68a146104a75780634a4c560d146104d05780634f6ccce7146104f95761020f565b80632f745c59146103b557806330cc7ae0146103f25780633ccfd60b1461041b57806340c10f19146104255761020f565b8063095ea7b3116101e2578063095ea7b3146102e257806313faede61461030b57806318160ddd14610336578063239c70ae1461036157806323b872dd1461038c5761020f565b806301ffc9a71461021457806302329a291461025157806306fdde031461027a578063081812fc146102a5575b600080fd5b34801561022057600080fd5b5061023b60048036038101906102369190613106565b610876565b6040516102489190613712565b60405180910390f35b34801561025d57600080fd5b50610278600480360381019061027391906130d9565b6108f0565b005b34801561028657600080fd5b5061028f610989565b60405161029c919061372d565b60405180910390f35b3480156102b157600080fd5b506102cc60048036038101906102c791906131a9565b610a1b565b6040516102d99190613689565b60405180910390f35b3480156102ee57600080fd5b5061030960048036038101906103049190613099565b610aa0565b005b34801561031757600080fd5b50610320610bb8565b60405161032d919061398f565b60405180910390f35b34801561034257600080fd5b5061034b610bbe565b604051610358919061398f565b60405180910390f35b34801561036d57600080fd5b50610376610bcb565b604051610383919061398f565b60405180910390f35b34801561039857600080fd5b506103b360048036038101906103ae9190612f83565b610bd1565b005b3480156103c157600080fd5b506103dc60048036038101906103d79190613099565b610c31565b6040516103e9919061398f565b60405180910390f35b3480156103fe57600080fd5b5061041960048036038101906104149190612f16565b610cd6565b005b610423610dad565b005b61043f600480360381019061043a9190613099565b610ea2565b005b34801561044d57600080fd5b5061046860048036038101906104639190612f83565b610fe8565b005b34801561047657600080fd5b50610491600480360381019061048c9190612f16565b611008565b60405161049e91906136f0565b60405180910390f35b3480156104b357600080fd5b506104ce60048036038101906104c991906131a9565b6110b6565b005b3480156104dc57600080fd5b506104f760048036038101906104f29190612f16565b61113c565b005b34801561050557600080fd5b50610520600480360381019061051b91906131a9565b611213565b60405161052d919061398f565b60405180910390f35b34801561054257600080fd5b5061055d60048036038101906105589190613160565b611284565b005b34801561056b57600080fd5b5061057461131a565b6040516105819190613712565b60405180910390f35b34801561059657600080fd5b506105b160048036038101906105ac91906131a9565b61132d565b6040516105be9190613689565b60405180910390f35b3480156105d357600080fd5b506105dc6113df565b6040516105e9919061372d565b60405180910390f35b3480156105fe57600080fd5b5061061960048036038101906106149190612f16565b61146d565b604051610626919061398f565b60405180910390f35b34801561063b57600080fd5b50610644611525565b005b34801561065257600080fd5b5061066d600480360381019061066891906131a9565b6115ad565b005b34801561067b57600080fd5b50610684611633565b6040516106919190613689565b60405180910390f35b3480156106a657600080fd5b506106af61165d565b6040516106bc919061372d565b60405180910390f35b3480156106d157600080fd5b506106ec60048036038101906106e79190613059565b6116ef565b005b3480156106fa57600080fd5b5061071560048036038101906107109190612fd6565b611870565b005b34801561072357600080fd5b5061072c6118d2565b604051610739919061372d565b60405180910390f35b34801561074e57600080fd5b50610769600480360381019061076491906131a9565b611960565b604051610776919061372d565b60405180910390f35b34801561078b57600080fd5b50610794611a0a565b6040516107a1919061398f565b60405180910390f35b3480156107b657600080fd5b506107d160048036038101906107cc9190612f16565b611a10565b6040516107de9190613712565b60405180910390f35b3480156107f357600080fd5b5061080e60048036038101906108099190613160565b611a30565b005b34801561081c57600080fd5b5061083760048036038101906108329190612f43565b611ac6565b6040516108449190613712565b60405180910390f35b34801561085957600080fd5b50610874600480360381019061086f9190612f16565b611b5a565b005b60007f780e9d63000000000000000000000000000000000000000000000000000000007bffffffffffffffffffffffffffffffffffffffffffffffffffffffff1916827bffffffffffffffffffffffffffffffffffffffffffffffffffffffff191614806108e957506108e882611c6a565b5b9050919050565b6108f8611d4c565b73ffffffffffffffffffffffffffffffffffffffff16610916611633565b73ffffffffffffffffffffffffffffffffffffffff161461096c576040517f08c379a0000000000000000000000000000000000000000000000000000000008152600401610963906138cf565b60405180910390fd5b80601060006101000a81548160ff02191690831515021790555050565b60606000805461099890613c98565b80601f01602080910402602001604051908101604052809291908181526020018280546109c490613c98565b8015610a115780601f106109e657610100808354040283529160200191610a11565b820191906000526020600020905b8154815290600101906020018083116109f457829003601f168201915b5050505050905090565b6000610a2682611d54565b610a65576040517f08c379a0000000000000000000000000000000000000000000000000000000008152600401610a5c906138af565b60405180910390fd5b6004600083815260200190815260200160002060009054906101000a900473ffffffffffffffffffffffffffffffffffffffff169050919050565b6000610aab8261132d565b90508073ffffffffffffffffffffffffffffffffffffffff168373ffffffffffffffffffffffffffffffffffffffff161415610b1c576040517f08c379a0000000000000000000000000000000000000000000000000000000008152600401610b139061392f565b60405180910390fd5b8073ffffffffffffffffffffffffffffffffffffffff16610b3b611d4c565b73ffffffffffffffffffffffffffffffffffffffff161480610b6a5750610b6981610b64611d4c565b611ac6565b5b610ba9576040517f08c379a0000000000000000000000000000000000000000000000000000000008152600401610ba09061382f565b60405180910390fd5b610bb38383611dc0565b505050565b600d5481565b6000600880549050905090565b600f5481565b610be2610bdc611d4c565b82611e79565b610c21576040517f08c379a0000000000000000000000000000000000000000000000000000000008152600401610c189061394f565b60405180910390fd5b610c2c838383611f57565b505050565b6000610c3c8361146d565b8210610c7d576040517f08c379a0000000000000000000000000000000000000000000000000000000008152600401610c749061374f565b60405180910390fd5b600660008473ffffffffffffffffffffffffffffffffffffffff1673ffffffffffffffffffffffffffffffffffffffff168152602001908152602001600020600083815260200190815260200160002054905092915050565b610cde611d4c565b73ffffffffffffffffffffffffffffffffffffffff16610cfc611633565b73ffffffffffffffffffffffffffffffffffffffff1614610d52576040517f08c379a0000000000000000000000000000000000000000000000000000000008152600401610d49906138cf565b60405180910390fd5b6000601160008373ffffffffffffffffffffffffffffffffffffffff1673ffffffffffffffffffffffffffffffffffffffff16815260200190815260200160002060006101000a81548160ff02191690831515021790555050565b610db5611d4c565b73ffffffffffffffffffffffffffffffffffffffff16610dd3611633565b73ffffffffffffffffffffffffffffffffffffffff1614610e29576040517f08c379a0000000000000000000000000000000000000000000000000000000008152600401610e20906138cf565b60405180910390fd5b60003373ffffffffffffffffffffffffffffffffffffffff1647604051610e4f90613674565b60006040518083038185875af1925050503d8060008114610e8c576040519150601f19603f3d011682016040523d82523d6000602084013e610e91565b606091505b5050905080610e9f57600080fd5b50565b6000610eac610bbe565b9050601060009054906101000a900460ff1615610ec857600080fd5b60008211610ed557600080fd5b600f54821115610ee457600080fd5b600e548282610ef39190613acd565b1115610efe57600080fd5b610f06611633565b73ffffffffffffffffffffffffffffffffffffffff163373ffffffffffffffffffffffffffffffffffffffff1614610fac5760011515601160003373ffffffffffffffffffffffffffffffffffffffff1673ffffffffffffffffffffffffffffffffffffffff16815260200190815260200160002060009054906101000a900460ff16151514610fab5781600d54610f9e9190613b54565b341015610faa57600080fd5b5b5b6000600190505b828111610fe257610fcf848284610fca9190613acd565b6121b3565b8080610fda90613cfb565b915050610fb3565b50505050565b61100383838360405180602001604052806000815250611870565b505050565b606060006110158361146d565b905060008167ffffffffffffffff81111561103357611032613e60565b5b6040519080825280602002602001820160405280156110615781602001602082028036833780820191505090505b50905060005b828110156110ab576110798582610c31565b82828151811061108c5761108b613e31565b5b60200260200101818152505080806110a390613cfb565b915050611067565b508092505050919050565b6110be611d4c565b73ffffffffffffffffffffffffffffffffffffffff166110dc611633565b73ffffffffffffffffffffffffffffffffffffffff1614611132576040517f08c379a0000000000000000000000000000000000000000000000000000000008152600401611129906138cf565b60405180910390fd5b80600d8190555050565b611144611d4c565b73ffffffffffffffffffffffffffffffffffffffff16611162611633565b73ffffffffffffffffffffffffffffffffffffffff16146111b8576040517f08c379a00000000000000000000000000000000000000000000000000000000081526004016111af906138cf565b60405180910390fd5b6001601160008373ffffffffffffffffffffffffffffffffffffffff1673ffffffffffffffffffffffffffffffffffffffff16815260200190815260200160002060006101000a81548160ff02191690831515021790555050565b600061121d610bbe565b821061125e576040517f08c379a00000000000000000000000000000000000000000000000000000000081526004016112559061396f565b60405180910390fd5b6008828154811061127257611271613e31565b5b90600052602060002001549050919050565b61128c611d4c565b73ffffffffffffffffffffffffffffffffffffffff166112aa611633565b73ffffffffffffffffffffffffffffffffffffffff1614611300576040517f08c379a00000000000000000000000000000000000000000000000000000000081526004016112f7906138cf565b60405180910390fd5b80600b9080519060200190611316929190612d2a565b5050565b601060009054906101000a900460ff1681565b6000806002600084815260200190815260200160002060009054906101000a900473ffffffffffffffffffffffffffffffffffffffff169050600073ffffffffffffffffffffffffffffffffffffffff168173ffffffffffffffffffffffffffffffffffffffff1614156113d6576040517f08c379a00000000000000000000000000000000000000000000000000000000081526004016113cd9061386f565b60405180910390fd5b80915050919050565b600b80546113ec90613c98565b80601f016020809104026020016040519081016040528092919081815260200182805461141890613c98565b80156114655780601f1061143a57610100808354040283529160200191611465565b820191906000526020600020905b81548152906001019060200180831161144857829003601f168201915b505050505081565b60008073ffffffffffffffffffffffffffffffffffffffff168273ffffffffffffffffffffffffffffffffffffffff1614156114de576040517f08c379a00000000000000000000000000000000000000000000000000000000081526004016114d59061384f565b60405180910390fd5b600360008373ffffffffffffffffffffffffffffffffffffffff1673ffffffffffffffffffffffffffffffffffffffff168152602001908152602001600020549050919050565b61152d611d4c565b73ffffffffffffffffffffffffffffffffffffffff1661154b611633565b73ffffffffffffffffffffffffffffffffffffffff16146115a1576040517f08c379a0000000000000000000000000000000000000000000000000000000008152600401611598906138cf565b60405180910390fd5b6115ab60006121d1565b565b6115b5611d4c565b73ffffffffffffffffffffffffffffffffffffffff166115d3611633565b73ffffffffffffffffffffffffffffffffffffffff1614611629576040517f08c379a0000000000000000000000000000000000000000000000000000000008152600401611620906138cf565b60405180910390fd5b80600f8190555050565b6000600a60009054906101000a900473ffffffffffffffffffffffffffffffffffffffff16905090565b60606001805461166c90613c98565b80601f016020809104026020016040519081016040528092919081815260200182805461169890613c98565b80156116e55780601f106116ba576101008083540402835291602001916116e5565b820191906000526020600020905b8154815290600101906020018083116116c857829003601f168201915b5050505050905090565b6116f7611d4c565b73ffffffffffffffffffffffffffffffffffffffff168273ffffffffffffffffffffffffffffffffffffffff161415611765576040517f08c379a000000000000000000000000000000000000000000000000000000000815260040161175c906137ef565b60405180910390fd5b8060056000611772611d4c565b73ffffffffffffffffffffffffffffffffffffffff1673ffffffffffffffffffffffffffffffffffffffff16815260200190815260200160002060008473ffffffffffffffffffffffffffffffffffffffff1673ffffffffffffffffffffffffffffffffffffffff16815260200190815260200160002060006101000a81548160ff0219169083151502179055508173ffffffffffffffffffffffffffffffffffffffff1661181f611d4c565b73ffffffffffffffffffffffffffffffffffffffff167f17307eab39ab6107e8899845ad3d59bd9653f200f220920489ca2b5937696c31836040516118649190613712565b60405180910390a35050565b61188161187b611d4c565b83611e79565b6118c0576040517f08c379a00000000000000000000000000000000000000000000000000000000081526004016118b79061394f565b60405180910390fd5b6118cc84848484612297565b50505050565b600c80546118df90613c98565b80601f016020809104026020016040519081016040528092919081815260200182805461190b90613c98565b80156119585780601f1061192d57610100808354040283529160200191611958565b820191906000526020600020905b81548152906001019060200180831161193b57829003601f168201915b505050505081565b606061196b82611d54565b6119aa576040517f08c379a00000000000000000000000000000000000000000000000000000000081526004016119a19061390f565b60405180910390fd5b60006119b46122f3565b905060008151116119d45760405180602001604052806000815250611a02565b806119de84612385565b600c6040516020016119f293929190613643565b6040516020818303038152906040525b915050919050565b600e5481565b60116020528060005260406000206000915054906101000a900460ff1681565b611a38611d4c565b73ffffffffffffffffffffffffffffffffffffffff16611a56611633565b73ffffffffffffffffffffffffffffffffffffffff1614611aac576040517f08c379a0000000000000000000000000000000000000000000000000000000008152600401611aa3906138cf565b60405180910390fd5b80600c9080519060200190611ac2929190612d2a565b5050565b6000600560008473ffffffffffffffffffffffffffffffffffffffff1673ffffffffffffffffffffffffffffffffffffffff16815260200190815260200160002060008373ffffffffffffffffffffffffffffffffffffffff1673ffffffffffffffffffffffffffffffffffffffff16815260200190815260200160002060009054906101000a900460ff16905092915050565b611b62611d4c565b73ffffffffffffffffffffffffffffffffffffffff16611b80611633565b73ffffffffffffffffffffffffffffffffffffffff1614611bd6576040517f08c379a0000000000000000000000000000000000000000000000000000000008152600401611bcd906138cf565b60405180910390fd5b600073ffffffffffffffffffffffffffffffffffffffff168173ffffffffffffffffffffffffffffffffffffffff161415611c46576040517f08c379a0000000000000000000000000000000000000000000000000000000008152600401611c3d9061378f565b60405180910390fd5b611c4f816121d1565b50565b600080823b905060008111915050919050565b505050565b60007f80ac58cd000000000000000000000000000000000000000000000000000000007bffffffffffffffffffffffffffffffffffffffffffffffffffffffff1916827bffffffffffffffffffffffffffffffffffffffffffffffffffffffff19161480611d3557507f5b5e139f000000000000000000000000000000000000000000000000000000007bffffffffffffffffffffffffffffffffffffffffffffffffffffffff1916827bffffffffffffffffffffffffffffffffffffffffffffffffffffffff1916145b80611d455750611d44826124e6565b5b9050919050565b600033905090565b60008073ffffffffffffffffffffffffffffffffffffffff166002600084815260200190815260200160002060009054906101000a900473ffffffffffffffffffffffffffffffffffffffff1673ffffffffffffffffffffffffffffffffffffffff1614159050919050565b816004600083815260200190815260200160002060006101000a81548173ffffffffffffffffffffffffffffffffffffffff021916908373ffffffffffffffffffffffffffffffffffffffff160217905550808273ffffffffffffffffffffffffffffffffffffffff16611e338361132d565b73ffffffffffffffffffffffffffffffffffffffff167f8c5be1e5ebec7d5bd14f71427d1e84f3dd0314c0f7b2291e5b200ac8c7c3b92560405160405180910390a45050565b6000611e8482611d54565b611ec3576040517f08c379a0000000000000000000000000000000000000000000000000000000008152600401611eba9061380f565b60405180910390fd5b6000611ece8361132d565b90508073ffffffffffffffffffffffffffffffffffffffff168473ffffffffffffffffffffffffffffffffffffffff161480611f3d57508373ffffffffffffffffffffffffffffffffffffffff16611f2584610a1b565b73ffffffffffffffffffffffffffffffffffffffff16145b80611f4e5750611f4d8185611ac6565b5b91505092915050565b8273ffffffffffffffffffffffffffffffffffffffff16611f778261132d565b73ffffffffffffffffffffffffffffffffffffffff1614611fcd576040517f08c379a0000000000000000000000000000000000000000000000000000000008152600401611fc4906138ef565b60405180910390fd5b600073ffffffffffffffffffffffffffffffffffffffff168273ffffffffffffffffffffffffffffffffffffffff16141561203d576040517f08c379a0000000000000000000000000000000000000000000000000000000008152600401612034906137cf565b60405180910390fd5b612048838383612550565b612053600082611dc0565b6001600360008573ffffffffffffffffffffffffffffffffffffffff1673ffffffffffffffffffffffffffffffffffffffff16815260200190815260200160002060008282546120a39190613bae565b925050819055506001600360008473ffffffffffffffffffffffffffffffffffffffff1673ffffffffffffffffffffffffffffffffffffffff16815260200190815260200160002060008282546120fa9190613acd565b92505081905550816002600083815260200190815260200160002060006101000a81548173ffffffffffffffffffffffffffffffffffffffff021916908373ffffffffffffffffffffffffffffffffffffffff160217905550808273ffffffffffffffffffffffffffffffffffffffff168473ffffffffffffffffffffffffffffffffffffffff167fddf252ad1be2c89b69c2b068fc378daa952ba7f163c4a11628f55a4df523b3ef60405160405180910390a4505050565b6121cd828260405180602001604052806000815250612664565b5050565b6000600a60009054906101000a900473ffffffffffffffffffffffffffffffffffffffff16905081600a60006101000a81548173ffffffffffffffffffffffffffffffffffffffff021916908373ffffffffffffffffffffffffffffffffffffffff1602179055508173ffffffffffffffffffffffffffffffffffffffff168173ffffffffffffffffffffffffffffffffffffffff167f8be0079c531659141344cd1fd0a4f28419497f9722a3daafe3b4186f6b6457e060405160405180910390a35050565b6122a2848484611f57565b6122ae848484846126bf565b6122ed576040517f08c379a00000000000000000000000000000000000000000000000000000000081526004016122e49061376f565b60405180910390fd5b50505050565b6060600b805461230290613c98565b80601f016020809104026020016040519081016040528092919081815260200182805461232e90613c98565b801561237b5780601f106123505761010080835404028352916020019161237b565b820191906000526020600020905b81548152906001019060200180831161235e57829003601f168201915b5050505050905090565b606060008214156123cd576040518060400160405280600181526020017f300000000000000000000000000000000000000000000000000000000000000081525090506124e1565b600082905060005b600082146123ff5780806123e890613cfb565b915050600a826123f89190613b23565b91506123d5565b60008167ffffffffffffffff81111561241b5761241a613e60565b5b6040519080825280601f01601f19166020018201604052801561244d5781602001600182028036833780820191505090505b5090505b600085146124da576001826124669190613bae565b9150600a856124759190613d44565b60306124819190613acd565b60f81b81838151811061249757612496613e31565b5b60200101907effffffffffffffffffffffffffffffffffffffffffffffffffffffffffffff1916908160001a905350600a856124d39190613b23565b9450612451565b8093505050505b919050565b60007f01ffc9a7000000000000000000000000000000000000000000000000000000007bffffffffffffffffffffffffffffffffffffffffffffffffffffffff1916827bffffffffffffffffffffffffffffffffffffffffffffffffffffffff1916149050919050565b61255b838383611c65565b600073ffffffffffffffffffffffffffffffffffffffff168373ffffffffffffffffffffffffffffffffffffffff16141561259e5761259981612856565b6125dd565b8173ffffffffffffffffffffffffffffffffffffffff168373ffffffffffffffffffffffffffffffffffffffff16146125dc576125db838261289f565b5b5b600073ffffffffffffffffffffffffffffffffffffffff168273ffffffffffffffffffffffffffffffffffffffff1614156126205761261b81612a0c565b61265f565b8273ffffffffffffffffffffffffffffffffffffffff168273ffffffffffffffffffffffffffffffffffffffff161461265e5761265d8282612add565b5b5b505050565b61266e8383612b5c565b61267b60008484846126bf565b6126ba576040517f08c379a00000000000000000000000000000000000000000000000000000000081526004016126b19061376f565b60405180910390fd5b505050565b60006126e08473ffffffffffffffffffffffffffffffffffffffff16611c52565b15612849578373ffffffffffffffffffffffffffffffffffffffff1663150b7a02612709611d4c565b8786866040518563ffffffff1660e01b815260040161272b94939291906136a4565b602060405180830381600087803b15801561274557600080fd5b505af192505050801561277657506040513d601f19601f820116820180604052508101906127739190613133565b60015b6127f9573d80600081146127a6576040519150601f19603f3d011682016040523d82523d6000602084013e6127ab565b606091505b506000815114156127f1576040517f08c379a00000000000000000000000000000000000000000000000000000000081526004016127e89061376f565b60405180910390fd5b805181602001fd5b63150b7a0260e01b7bffffffffffffffffffffffffffffffffffffffffffffffffffffffff1916817bffffffffffffffffffffffffffffffffffffffffffffffffffffffff19161491505061284e565b600190505b949350505050565b6008805490506009600083815260200190815260200160002081905550600881908060018154018082558091505060019003906000526020600020016000909190919091505550565b600060016128ac8461146d565b6128b69190613bae565b905060006007600084815260200190815260200160002054905081811461299b576000600660008673ffffffffffffffffffffffffffffffffffffffff1673ffffffffffffffffffffffffffffffffffffffff168152602001908152602001600020600084815260200190815260200160002054905080600660008773ffffffffffffffffffffffffffffffffffffffff1673ffffffffffffffffffffffffffffffffffffffff168152602001908152602001600020600084815260200190815260200160002081905550816007600083815260200190815260200160002081905550505b6007600084815260200190815260200160002060009055600660008573ffffffffffffffffffffffffffffffffffffffff1673ffffffffffffffffffffffffffffffffffffffff16815260200190815260200160002060008381526020019081526020016000206000905550505050565b60006001600880549050612a209190613bae565b9050600060096000848152602001908152602001600020549050600060088381548110612a5057612a4f613e31565b5b906000526020600020015490508060088381548110612a7257612a71613e31565b5b906000526020600020018190555081600960008381526020019081526020016000208190555060096000858152602001908152602001600020600090556008805480612ac157612ac0613e02565b5b6001900381819060005260206000200160009055905550505050565b6000612ae88361146d565b905081600660008573ffffffffffffffffffffffffffffffffffffffff1673ffffffffffffffffffffffffffffffffffffffff168152602001908152602001600020600083815260200190815260200160002081905550806007600084815260200190815260200160002081905550505050565b600073ffffffffffffffffffffffffffffffffffffffff168273ffffffffffffffffffffffffffffffffffffffff161415612bcc576040517f08c379a0000000000000000000000000000000000000000000000000000000008152600401612bc39061388f565b60405180910390fd5b612bd581611d54565b15612c15576040517f08c379a0000000000000000000000000000000000000000000000000000000008152600401612c0c906137af565b60405180910390fd5b612c2160008383612550565b6001600360008473ffffffffffffffffffffffffffffffffffffffff1673ffffffffffffffffffffffffffffffffffffffff1681526020019081526020016000206000828254612c719190613acd565b92505081905550816002600083815260200190815260200160002060006101000a81548173ffffffffffffffffffffffffffffffffffffffff021916908373ffffffffffffffffffffffffffffffffffffffff160217905550808273ffffffffffffffffffffffffffffffffffffffff16600073ffffffffffffffffffffffffffffffffffffffff167fddf252ad1be2c89b69c2b068fc378daa952ba7f163c4a11628f55a4df523b3ef60405160405180910390a45050565b828054612d3690613c98565b90600052602060002090601f016020900481019282612d585760008555612d9f565b82601f10612d7157805160ff1916838001178555612d9f565b82800160010185558215612d9f579182015b82811115612d9e578251825591602001919060010190612d83565b5b509050612dac9190612db0565b5090565b5b80821115612dc9576000816000905550600101612db1565b5090565b6000612de0612ddb846139cf565b6139aa565b905082815260208101848484011115612dfc57612dfb613e94565b5b612e07848285613c56565b509392505050565b6000612e22612e1d84613a00565b6139aa565b905082815260208101848484011115612e3e57612e3d613e94565b5b612e49848285613c56565b509392505050565b600081359050612e60816143ad565b92915050565b600081359050612e75816143c4565b92915050565b600081359050612e8a816143db565b92915050565b600081519050612e9f816143db565b92915050565b600082601f830112612eba57612eb9613e8f565b5b8135612eca848260208601612dcd565b91505092915050565b600082601f830112612ee857612ee7613e8f565b5b8135612ef8848260208601612e0f565b91505092915050565b600081359050612f10816143f2565b92915050565b600060208284031215612f2c57612f2b613e9e565b5b6000612f3a84828501612e51565b91505092915050565b60008060408385031215612f5a57612f59613e9e565b5b6000612f6885828601612e51565b9250506020612f7985828601612e51565b9150509250929050565b600080600060608486031215612f9c57612f9b613e9e565b5b6000612faa86828701612e51565b9350506020612fbb86828701612e51565b9250506040612fcc86828701612f01565b9150509250925092565b60008060008060808587031215612ff057612fef613e9e565b5b6000612ffe87828801612e51565b945050602061300f87828801612e51565b935050604061302087828801612f01565b925050606085013567ffffffffffffffff81111561304157613040613e99565b5b61304d87828801612ea5565b91505092959194509250565b600080604083850312156130705761306f613e9e565b5b600061307e85828601612e51565b925050602061308f85828601612e66565b9150509250929050565b600080604083850312156130b0576130af613e9e565b5b60006130be85828601612e51565b92505060206130cf85828601612f01565b9150509250929050565b6000602082840312156130ef576130ee613e9e565b5b60006130fd84828501612e66565b91505092915050565b60006020828403121561311c5761311b613e9e565b5b600061312a84828501612e7b565b91505092915050565b60006020828403121561314957613148613e9e565b5b600061315784828501612e90565b91505092915050565b60006020828403121561317657613175613e9e565b5b600082013567ffffffffffffffff81111561319457613193613e99565b5b6131a084828501612ed3565b91505092915050565b6000602082840312156131bf576131be613e9e565b5b60006131cd84828501612f01565b91505092915050565b60006131e28383613625565b60208301905092915050565b6131f781613be2565b82525050565b600061320882613a56565b6132128185613a84565b935061321d83613a31565b8060005b8381101561324e57815161323588826131d6565b975061324083613a77565b925050600181019050613221565b5085935050505092915050565b61326481613bf4565b82525050565b600061327582613a61565b61327f8185613a95565b935061328f818560208601613c65565b61329881613ea3565b840191505092915050565b60006132ae82613a6c565b6132b88185613ab1565b93506132c8818560208601613c65565b6132d181613ea3565b840191505092915050565b60006132e782613a6c565b6132f18185613ac2565b9350613301818560208601613c65565b80840191505092915050565b6000815461331a81613c98565b6133248186613ac2565b9450600182166000811461333f576001811461335057613383565b60ff19831686528186019350613383565b61335985613a41565b60005b8381101561337b5781548189015260018201915060208101905061335c565b838801955050505b50505092915050565b6000613399602b83613ab1565b91506133a482613eb4565b604082019050919050565b60006133bc603283613ab1565b91506133c782613f03565b604082019050919050565b60006133df602683613ab1565b91506133ea82613f52565b604082019050919050565b6000613402601c83613ab1565b915061340d82613fa1565b602082019050919050565b6000613425602483613ab1565b915061343082613fca565b604082019050919050565b6000613448601983613ab1565b915061345382614019565b602082019050919050565b600061346b602c83613ab1565b915061347682614042565b604082019050919050565b600061348e603883613ab1565b915061349982614091565b604082019050919050565b60006134b1602a83613ab1565b91506134bc826140e0565b604082019050919050565b60006134d4602983613ab1565b91506134df8261412f565b604082019050919050565b60006134f7602083613ab1565b91506135028261417e565b602082019050919050565b600061351a602c83613ab1565b9150613525826141a7565b604082019050919050565b600061353d602083613ab1565b9150613548826141f6565b602082019050919050565b6000613560602983613ab1565b915061356b8261421f565b604082019050919050565b6000613583602f83613ab1565b915061358e8261426e565b604082019050919050565b60006135a6602183613ab1565b91506135b1826142bd565b604082019050919050565b60006135c9600083613aa6565b91506135d48261430c565b600082019050919050565b60006135ec603183613ab1565b91506135f78261430f565b604082019050919050565b600061360f602c83613ab1565b915061361a8261435e565b604082019050919050565b61362e81613c4c565b82525050565b61363d81613c4c565b82525050565b600061364f82866132dc565b915061365b82856132dc565b9150613667828461330d565b9150819050949350505050565b600061367f826135bc565b9150819050919050565b600060208201905061369e60008301846131ee565b92915050565b60006080820190506136b960008301876131ee565b6136c660208301866131ee565b6136d36040830185613634565b81810360608301526136e5818461326a565b905095945050505050565b6000602082019050818103600083015261370a81846131fd565b905092915050565b6000602082019050613727600083018461325b565b92915050565b6000602082019050818103600083015261374781846132a3565b905092915050565b600060208201905081810360008301526137688161338c565b9050919050565b60006020820190508181036000830152613788816133af565b9050919050565b600060208201905081810360008301526137a8816133d2565b9050919050565b600060208201905081810360008301526137c8816133f5565b9050919050565b600060208201905081810360008301526137e881613418565b9050919050565b600060208201905081810360008301526138088161343b565b9050919050565b600060208201905081810360008301526138288161345e565b9050919050565b6000602082019050818103600083015261384881613481565b9050919050565b60006020820190508181036000830152613868816134a4565b9050919050565b60006020820190508181036000830152613888816134c7565b9050919050565b600060208201905081810360008301526138a8816134ea565b9050919050565b600060208201905081810360008301526138c88161350d565b9050919050565b600060208201905081810360008301526138e881613530565b9050919050565b6000602082019050818103600083015261390881613553565b9050919050565b6000602082019050818103600083015261392881613576565b9050919050565b6000602082019050818103600083015261394881613599565b9050919050565b60006020820190508181036000830152613968816135df565b9050919050565b6000602082019050818103600083015261398881613602565b9050919050565b60006020820190506139a46000830184613634565b92915050565b60006139b46139c5565b90506139c08282613cca565b919050565b6000604051905090565b600067ffffffffffffffff8211156139ea576139e9613e60565b5b6139f382613ea3565b9050602081019050919050565b600067ffffffffffffffff821115613a1b57613a1a613e60565b5b613a2482613ea3565b9050602081019050919050565b6000819050602082019050919050565b60008190508160005260206000209050919050565b600081519050919050565b600081519050919050565b600081519050919050565b6000602082019050919050565b600082825260208201905092915050565b600082825260208201905092915050565b600081905092915050565b600082825260208201905092915050565b600081905092915050565b6000613ad882613c4c565b9150613ae383613c4c565b9250827fffffffffffffffffffffffffffffffffffffffffffffffffffffffffffffffff03821115613b1857613b17613d75565b5b828201905092915050565b6000613b2e82613c4c565b9150613b3983613c4c565b925082613b4957613b48613da4565b5b828204905092915050565b6000613b5f82613c4c565b9150613b6a83613c4c565b9250817fffffffffffffffffffffffffffffffffffffffffffffffffffffffffffffffff0483118215151615613ba357613ba2613d75565b5b828202905092915050565b6000613bb982613c4c565b9150613bc483613c4c565b925082821015613bd757613bd6613d75565b5b828203905092915050565b6000613bed82613c2c565b9050919050565b60008115159050919050565b60007fffffffff0000000000000000000000000000000000000000000000000000000082169050919050565b600073ffffffffffffffffffffffffffffffffffffffff82169050919050565b6000819050919050565b82818337600083830152505050565b60005b83811015613c83578082015181840152602081019050613c68565b83811115613c92576000848401525b50505050565b60006002820490506001821680613cb057607f821691505b60208210811415613cc457613cc3613dd3565b5b50919050565b613cd382613ea3565b810181811067ffffffffffffffff82111715613cf257613cf1613e60565b5b80604052505050565b6000613d0682613c4c565b91507fffffffffffffffffffffffffffffffffffffffffffffffffffffffffffffffff821415613d3957613d38613d75565b5b600182019050919050565b6000613d4f82613c4c565b9150613d5a83613c4c565b925082613d6a57613d69613da4565b5b828206905092915050565b7f4e487b7100000000000000000000000000000000000000000000000000000000600052601160045260246000fd5b7f4e487b7100000000000000000000000000000000000000000000000000000000600052601260045260246000fd5b7f4e487b7100000000000000000000000000000000000000000000000000000000600052602260045260246000fd5b7f4e487b7100000000000000000000000000000000000000000000000000000000600052603160045260246000fd5b7f4e487b7100000000000000000000000000000000000000000000000000000000600052603260045260246000fd5b7f4e487b7100000000000000000000000000000000000000000000000000000000600052604160045260246000fd5b600080fd5b600080fd5b600080fd5b600080fd5b6000601f19601f8301169050919050565b7f455243373231456e756d657261626c653a206f776e657220696e646578206f7560008201527f74206f6620626f756e6473000000000000000000000000000000000000000000602082015250565b7f4552433732313a207472616e7366657220746f206e6f6e20455243373231526560008201527f63656976657220696d706c656d656e7465720000000000000000000000000000602082015250565b7f4f776e61626c653a206e6577206f776e657220697320746865207a65726f206160008201527f6464726573730000000000000000000000000000000000000000000000000000602082015250565b7f4552433732313a20746f6b656e20616c7265616479206d696e74656400000000600082015250565b7f4552433732313a207472616e7366657220746f20746865207a65726f2061646460008201527f7265737300000000000000000000000000000000000000000000000000000000602082015250565b7f4552433732313a20617070726f766520746f2063616c6c657200000000000000600082015250565b7f4552433732313a206f70657261746f7220717565727920666f72206e6f6e657860008201527f697374656e7420746f6b656e0000000000000000000000000000000000000000602082015250565b7f4552433732313a20617070726f76652063616c6c6572206973206e6f74206f7760008201527f6e6572206e6f7220617070726f76656420666f7220616c6c0000000000000000602082015250565b7f4552433732313a2062616c616e636520717565727920666f7220746865207a6560008201527f726f206164647265737300000000000000000000000000000000000000000000602082015250565b7f4552433732313a206f776e657220717565727920666f72206e6f6e657869737460008201527f656e7420746f6b656e0000000000000000000000000000000000000000000000602082015250565b7f4552433732313a206d696e7420746f20746865207a65726f2061646472657373600082015250565b7f4552433732313a20617070726f76656420717565727920666f72206e6f6e657860008201527f697374656e7420746f6b656e0000000000000000000000000000000000000000602082015250565b7f4f776e61626c653a2063616c6c6572206973206e6f7420746865206f776e6572600082015250565b7f4552433732313a207472616e73666572206f6620746f6b656e2074686174206960008201527f73206e6f74206f776e0000000000000000000000000000000000000000000000602082015250565b7f4552433732314d657461646174613a2055524920717565727920666f72206e6f60008201527f6e6578697374656e7420746f6b656e0000000000000000000000000000000000602082015250565b7f4552433732313a20617070726f76616c20746f2063757272656e74206f776e6560008201527f7200000000000000000000000000000000000000000000000000000000000000602082015250565b50565b7f4552433732313a207472616e736665722063616c6c6572206973206e6f74206f60008201527f776e6572206e6f7220617070726f766564000000000000000000000000000000602082015250565b7f455243373231456e756d657261626c653a20676c6f62616c20696e646578206f60008201527f7574206f6620626f756e64730000000000000000000000000000000000000000602082015250565b6143b681613be2565b81146143c157600080fd5b50565b6143cd81613bf4565b81146143d857600080fd5b50565b6143e481613c00565b81146143ef57600080fd5b50565b6143fb81613c4c565b811461440657600080fd5b5056fea26469706673582212204c67acc0f9553fc3b752026c8b4f4449f30fe3014c7c0eb62c0a3faba7bde04f64736f6c63430008070033",
  "immutableReferences": {},
  "source": "// SPDX-License-Identifier: GPL-3.0\n\n// Based on HashLips tutorials. Updated by IT Mandalorians \n\npragma solidity >=0.7.0 <0.9.0;\n\nimport \"@openzeppelin/contracts/token/ERC721/extensions/ERC721Enumerable.sol\";\nimport \"@openzeppelin/contracts/access/Ownable.sol\";\n\ncontract NFT is ERC721Enumerable, Ownable {\n  using Strings for uint256;\n\n  string public baseURI;\n  string public baseExtension = \".json\";\n  uint256 public cost = 0.05 ether;\n  uint256 public maxSupply = 10;\n  uint256 public maxMintAmount = 20;\n  bool public paused = false;\n  mapping(address => bool) public whitelisted;\n\n  constructor(\n    string memory _name,\n    string memory _symbol,\n    string memory _initBaseURI\n  ) ERC721(_name, _symbol) {\n    setBaseURI(_initBaseURI);\n    mint(msg.sender, 10);\n  }\n\n  // internal\n  function _baseURI() internal view virtual override returns (string memory) {\n    return baseURI;\n  }\n\n  // public\n  function mint(address _to, uint256 _mintAmount) public payable {\n    uint256 supply = totalSupply();\n    require(!paused);\n    require(_mintAmount > 0);\n    require(_mintAmount <= maxMintAmount);\n    require(supply + _mintAmount <= maxSupply);\n\n    if (msg.sender != owner()) {\n        if(whitelisted[msg.sender] != true) {\n          require(msg.value >= cost * _mintAmount);\n        }\n    }\n\n    for (uint256 i = 1; i <= _mintAmount; i++) {\n      _safeMint(_to, supply + i);\n    }\n  }\n\n  function walletOfOwner(address _owner)\n    public\n    view\n    returns (uint256[] memory)\n  {\n    uint256 ownerTokenCount = balanceOf(_owner);\n    uint256[] memory tokenIds = new uint256[](ownerTokenCount);\n    for (uint256 i; i < ownerTokenCount; i++) {\n      tokenIds[i] = tokenOfOwnerByIndex(_owner, i);\n    }\n    return tokenIds;\n  }\n\n  //this function is called automatically by ERC721 - hence in charge of assigning the tokenURI to every minted token\n  function tokenURI(uint256 tokenId)\n    public\n    view\n    virtual\n    override\n    returns (string memory)\n  {\n    require(\n      _exists(tokenId),\n      \"ERC721Metadata: URI query for nonexistent token\"\n    );\n\n    string memory currentBaseURI = _baseURI();\n    return bytes(currentBaseURI).length > 0\n        ? string(abi.encodePacked(currentBaseURI, tokenId.toString(), baseExtension))\n        : \"\";\n  }\n\n  //only owner\n  function setCost(uint256 _newCost) public onlyOwner() {\n    cost = _newCost;\n  }\n\n  function setmaxMintAmount(uint256 _newmaxMintAmount) public onlyOwner() {\n    maxMintAmount = _newmaxMintAmount;\n  }\n\n  function setBaseURI(string memory _newBaseURI) public onlyOwner {\n    baseURI = _newBaseURI;\n  }\n\n  function setBaseExtension(string memory _newBaseExtension) public onlyOwner {\n    baseExtension = _newBaseExtension;\n  }\n\n  function pause(bool _state) public onlyOwner {\n    paused = _state;\n  }\n \n function whitelistUser(address _user) public onlyOwner {\n    whitelisted[_user] = true;\n  }\n \n  function removeWhitelistUser(address _user) public onlyOwner {\n    whitelisted[_user] = false;\n  }\n\n  function withdraw() public payable onlyOwner {\n    (bool success, ) = payable(msg.sender).call{value: address(this).balance}(\"\");\n    require(success);\n  }\n}",
  "sourcePath": "/home/luisca/blockchain/NFT_Mandalorian_Helmets/contracts/NFT.sol",
  "compiler": {
    "name": "solc",
    "version": "0.8.7+commit.e28d00a7.Emscripten.clang"
  },
  "schemaVersion": "3.4.3",
  "updatedAt": "2022-04-14T09:19:41.543Z",
  "networkType": "ethereum",
  "devdoc": {
    "kind": "dev",
    "methods": {
      "approve(address,uint256)": {
        "details": "See {IERC721-approve}."
      },
      "balanceOf(address)": {
        "details": "See {IERC721-balanceOf}."
      },
      "getApproved(uint256)": {
        "details": "See {IERC721-getApproved}."
      },
      "isApprovedForAll(address,address)": {
        "details": "See {IERC721-isApprovedForAll}."
      },
      "name()": {
        "details": "See {IERC721Metadata-name}."
      },
      "owner()": {
        "details": "Returns the address of the current owner."
      },
      "ownerOf(uint256)": {
        "details": "See {IERC721-ownerOf}."
      },
      "renounceOwnership()": {
        "details": "Leaves the contract without owner. It will not be possible to call `onlyOwner` functions anymore. Can only be called by the current owner. NOTE: Renouncing ownership will leave the contract without an owner, thereby removing any functionality that is only available to the owner."
      },
      "safeTransferFrom(address,address,uint256)": {
        "details": "See {IERC721-safeTransferFrom}."
      },
      "safeTransferFrom(address,address,uint256,bytes)": {
        "details": "See {IERC721-safeTransferFrom}."
      },
      "setApprovalForAll(address,bool)": {
        "details": "See {IERC721-setApprovalForAll}."
      },
      "supportsInterface(bytes4)": {
        "details": "See {IERC165-supportsInterface}."
      },
      "symbol()": {
        "details": "See {IERC721Metadata-symbol}."
      },
      "tokenByIndex(uint256)": {
        "details": "See {IERC721Enumerable-tokenByIndex}."
      },
      "tokenOfOwnerByIndex(address,uint256)": {
        "details": "See {IERC721Enumerable-tokenOfOwnerByIndex}."
      },
      "tokenURI(uint256)": {
        "details": "See {IERC721Metadata-tokenURI}."
      },
      "totalSupply()": {
        "details": "See {IERC721Enumerable-totalSupply}."
      },
      "transferFrom(address,address,uint256)": {
        "details": "See {IERC721-transferFrom}."
      },
      "transferOwnership(address)": {
        "details": "Transfers ownership of the contract to a new account (`newOwner`). Can only be called by the current owner."
      }
    },
    "version": 1
  },
  "userdoc": {
    "kind": "user",
    "methods": {},
    "version": 1
  }
}